{
	"contracts/CAC.sol": {
		"CAC": {
			"abi": [
				{
					"inputs": [
						{
							"internalType": "contract IERC20",
							"name": "_token",
							"type": "address"
						},
						{
							"internalType": "uint256",
							"name": "_price",
							"type": "uint256"
						}
					],
					"stateMutability": "nonpayable",
					"type": "constructor"
				},
				{
					"inputs": [],
					"name": "associatedToken",
					"outputs": [
						{
							"internalType": "contract IERC20",
							"name": "",
							"type": "address"
						}
					],
					"stateMutability": "view",
					"type": "function"
				},
				{
					"inputs": [],
					"name": "sell",
					"outputs": [],
					"stateMutability": "nonpayable",
					"type": "function"
				}
			],
			"devdoc": {
				"kind": "dev",
				"methods": {},
				"version": 1
			},
			"evm": {
				"assembly": "    /* \"contracts/CAC.sol\":126:1178  contract CAC ... */\n  mstore(0x40, 0x80)\n    /* \"contracts/CAC.sol\":223:366  constructor(IERC20 _token, uint _price) ... */\n  callvalue\n  dup1\n  iszero\n  tag_1\n  jumpi\n  0x00\n  dup1\n  revert\ntag_1:\n  pop\n  mload(0x40)\n  sub(codesize, bytecodeSize)\n  dup1\n  bytecodeSize\n  dup4\n  codecopy\n  dup2\n  dup2\n  add\n  0x40\n  mstore\n  dup2\n  add\n  swap1\n  tag_2\n  swap2\n  swap1\n  tag_3\n  jump\t// in\ntag_2:\n    /* \"contracts/CAC.sol\":298:304  _token */\n  dup2\n    /* \"contracts/CAC.sol\":280:295  associatedToken */\n  0x00\n  dup1\n    /* \"contracts/CAC.sol\":280:304  associatedToken = _token */\n  0x0100\n  exp\n  dup2\n  sload\n  dup2\n  0xffffffffffffffffffffffffffffffffffffffff\n  mul\n  not\n  and\n  swap1\n  dup4\n  0xffffffffffffffffffffffffffffffffffffffff\n  and\n  mul\n  or\n  swap1\n  sstore\n  pop\n    /* \"contracts/CAC.sol\":323:333  msg.sender */\n  caller\n    /* \"contracts/CAC.sol\":315:320  owner */\n  0x02\n  0x00\n    /* \"contracts/CAC.sol\":315:333  owner = msg.sender */\n  0x0100\n  exp\n  dup2\n  sload\n  dup2\n  0xffffffffffffffffffffffffffffffffffffffff\n  mul\n  not\n  and\n  swap1\n  dup4\n  0xffffffffffffffffffffffffffffffffffffffff\n  and\n  mul\n  or\n  swap1\n  sstore\n  pop\n    /* \"contracts/CAC.sol\":352:358  _price */\n  dup1\n    /* \"contracts/CAC.sol\":344:349  price */\n  0x01\n    /* \"contracts/CAC.sol\":344:358  price = _price */\n  dup2\n  swap1\n  sstore\n  pop\n    /* \"contracts/CAC.sol\":223:366  constructor(IERC20 _token, uint _price) ... */\n  pop\n  pop\n    /* \"contracts/CAC.sol\":126:1178  contract CAC ... */\n  jump(tag_6)\n    /* \"#utility.yul\":88:205   */\ntag_8:\n    /* \"#utility.yul\":197:198   */\n  0x00\n    /* \"#utility.yul\":194:195   */\n  dup1\n    /* \"#utility.yul\":187:199   */\n  revert\n    /* \"#utility.yul\":334:460   */\ntag_10:\n    /* \"#utility.yul\":371:378   */\n  0x00\n    /* \"#utility.yul\":411:453   */\n  0xffffffffffffffffffffffffffffffffffffffff\n    /* \"#utility.yul\":404:409   */\n  dup3\n    /* \"#utility.yul\":400:454   */\n  and\n    /* \"#utility.yul\":389:454   */\n  swap1\n  pop\n    /* \"#utility.yul\":334:460   */\n  swap2\n  swap1\n  pop\n  jump\t// out\n    /* \"#utility.yul\":466:562   */\ntag_11:\n    /* \"#utility.yul\":503:510   */\n  0x00\n    /* \"#utility.yul\":532:556   */\n  tag_24\n    /* \"#utility.yul\":550:555   */\n  dup3\n    /* \"#utility.yul\":532:556   */\n  tag_10\n  jump\t// in\ntag_24:\n    /* \"#utility.yul\":521:556   */\n  swap1\n  pop\n    /* \"#utility.yul\":466:562   */\n  swap2\n  swap1\n  pop\n  jump\t// out\n    /* \"#utility.yul\":568:678   */\ntag_12:\n    /* \"#utility.yul\":619:626   */\n  0x00\n    /* \"#utility.yul\":648:672   */\n  tag_26\n    /* \"#utility.yul\":666:671   */\n  dup3\n    /* \"#utility.yul\":648:672   */\n  tag_11\n  jump\t// in\ntag_26:\n    /* \"#utility.yul\":637:672   */\n  swap1\n  pop\n    /* \"#utility.yul\":568:678   */\n  swap2\n  swap1\n  pop\n  jump\t// out\n    /* \"#utility.yul\":684:834   */\ntag_13:\n    /* \"#utility.yul\":771:809   */\n  tag_28\n    /* \"#utility.yul\":803:808   */\n  dup2\n    /* \"#utility.yul\":771:809   */\n  tag_12\n  jump\t// in\ntag_28:\n    /* \"#utility.yul\":764:769   */\n  dup2\n    /* \"#utility.yul\":761:810   */\n  eq\n    /* \"#utility.yul\":751:828   */\n  tag_29\n  jumpi\n    /* \"#utility.yul\":824:825   */\n  0x00\n    /* \"#utility.yul\":821:822   */\n  dup1\n    /* \"#utility.yul\":814:826   */\n  revert\n    /* \"#utility.yul\":751:828   */\ntag_29:\n    /* \"#utility.yul\":684:834   */\n  pop\n  jump\t// out\n    /* \"#utility.yul\":840:1011   */\ntag_14:\n    /* \"#utility.yul\":911:916   */\n  0x00\n    /* \"#utility.yul\":942:948   */\n  dup2\n    /* \"#utility.yul\":936:949   */\n  mload\n    /* \"#utility.yul\":927:949   */\n  swap1\n  pop\n    /* \"#utility.yul\":958:1005   */\n  tag_31\n    /* \"#utility.yul\":999:1004   */\n  dup2\n    /* \"#utility.yul\":958:1005   */\n  tag_13\n  jump\t// in\ntag_31:\n    /* \"#utility.yul\":840:1011   */\n  swap3\n  swap2\n  pop\n  pop\n  jump\t// out\n    /* \"#utility.yul\":1017:1094   */\ntag_15:\n    /* \"#utility.yul\":1054:1061   */\n  0x00\n    /* \"#utility.yul\":1083:1088   */\n  dup2\n    /* \"#utility.yul\":1072:1088   */\n  swap1\n  pop\n    /* \"#utility.yul\":1017:1094   */\n  swap2\n  swap1\n  pop\n  jump\t// out\n    /* \"#utility.yul\":1100:1222   */\ntag_16:\n    /* \"#utility.yul\":1173:1197   */\n  tag_34\n    /* \"#utility.yul\":1191:1196   */\n  dup2\n    /* \"#utility.yul\":1173:1197   */\n  tag_15\n  jump\t// in\ntag_34:\n    /* \"#utility.yul\":1166:1171   */\n  dup2\n    /* \"#utility.yul\":1163:1198   */\n  eq\n    /* \"#utility.yul\":1153:1216   */\n  tag_35\n  jumpi\n    /* \"#utility.yul\":1212:1213   */\n  0x00\n    /* \"#utility.yul\":1209:1210   */\n  dup1\n    /* \"#utility.yul\":1202:1214   */\n  revert\n    /* \"#utility.yul\":1153:1216   */\ntag_35:\n    /* \"#utility.yul\":1100:1222   */\n  pop\n  jump\t// out\n    /* \"#utility.yul\":1228:1371   */\ntag_17:\n    /* \"#utility.yul\":1285:1290   */\n  0x00\n    /* \"#utility.yul\":1316:1322   */\n  dup2\n    /* \"#utility.yul\":1310:1323   */\n  mload\n    /* \"#utility.yul\":1301:1323   */\n  swap1\n  pop\n    /* \"#utility.yul\":1332:1365   */\n  tag_37\n    /* \"#utility.yul\":1359:1364   */\n  dup2\n    /* \"#utility.yul\":1332:1365   */\n  tag_16\n  jump\t// in\ntag_37:\n    /* \"#utility.yul\":1228:1371   */\n  swap3\n  swap2\n  pop\n  pop\n  jump\t// out\n    /* \"#utility.yul\":1377:1912   */\ntag_3:\n    /* \"#utility.yul\":1470:1476   */\n  0x00\n    /* \"#utility.yul\":1478:1484   */\n  dup1\n    /* \"#utility.yul\":1527:1529   */\n  0x40\n    /* \"#utility.yul\":1515:1524   */\n  dup4\n    /* \"#utility.yul\":1506:1513   */\n  dup6\n    /* \"#utility.yul\":1502:1525   */\n  sub\n    /* \"#utility.yul\":1498:1530   */\n  slt\n    /* \"#utility.yul\":1495:1614   */\n  iszero\n  tag_39\n  jumpi\n    /* \"#utility.yul\":1533:1612   */\n  tag_40\n  tag_8\n  jump\t// in\ntag_40:\n    /* \"#utility.yul\":1495:1614   */\ntag_39:\n    /* \"#utility.yul\":1653:1654   */\n  0x00\n    /* \"#utility.yul\":1678:1756   */\n  tag_41\n    /* \"#utility.yul\":1748:1755   */\n  dup6\n    /* \"#utility.yul\":1739:1745   */\n  dup3\n    /* \"#utility.yul\":1728:1737   */\n  dup7\n    /* \"#utility.yul\":1724:1746   */\n  add\n    /* \"#utility.yul\":1678:1756   */\n  tag_14\n  jump\t// in\ntag_41:\n    /* \"#utility.yul\":1668:1756   */\n  swap3\n  pop\n    /* \"#utility.yul\":1624:1766   */\n  pop\n    /* \"#utility.yul\":1805:1807   */\n  0x20\n    /* \"#utility.yul\":1831:1895   */\n  tag_42\n    /* \"#utility.yul\":1887:1894   */\n  dup6\n    /* \"#utility.yul\":1878:1884   */\n  dup3\n    /* \"#utility.yul\":1867:1876   */\n  dup7\n    /* \"#utility.yul\":1863:1885   */\n  add\n    /* \"#utility.yul\":1831:1895   */\n  tag_17\n  jump\t// in\ntag_42:\n    /* \"#utility.yul\":1821:1895   */\n  swap2\n  pop\n    /* \"#utility.yul\":1776:1905   */\n  pop\n    /* \"#utility.yul\":1377:1912   */\n  swap3\n  pop\n  swap3\n  swap1\n  pop\n  jump\t// out\n    /* \"contracts/CAC.sol\":126:1178  contract CAC ... */\ntag_6:\n  dataSize(sub_0)\n  dup1\n  dataOffset(sub_0)\n  0x00\n  codecopy\n  0x00\n  return\nstop\n\nsub_0: assembly {\n        /* \"contracts/CAC.sol\":126:1178  contract CAC ... */\n      mstore(0x40, 0x80)\n      callvalue\n      dup1\n      iszero\n      tag_1\n      jumpi\n      0x00\n      dup1\n      revert\n    tag_1:\n      pop\n      jumpi(tag_2, lt(calldatasize, 0x04))\n      shr(0xe0, calldataload(0x00))\n      dup1\n      0x45710074\n      eq\n      tag_3\n      jumpi\n      dup1\n      0xb3fc0d7b\n      eq\n      tag_4\n      jumpi\n    tag_2:\n      0x00\n      dup1\n      revert\n        /* \"contracts/CAC.sol\":826:1173  function sell() external onlyOwner... */\n    tag_3:\n      tag_5\n      tag_6\n      jump\t// in\n    tag_5:\n      stop\n        /* \"contracts/CAC.sol\":148:177  IERC20 public associatedToken */\n    tag_4:\n      tag_7\n      tag_8\n      jump\t// in\n    tag_7:\n      mload(0x40)\n      tag_9\n      swap2\n      swap1\n      tag_10\n      jump\t// in\n    tag_9:\n      mload(0x40)\n      dup1\n      swap2\n      sub\n      swap1\n      return\n        /* \"contracts/CAC.sol\":826:1173  function sell() external onlyOwner... */\n    tag_6:\n        /* \"contracts/CAC.sol\":599:604  owner */\n      0x02\n      0x00\n      swap1\n      sload\n      swap1\n      0x0100\n      exp\n      swap1\n      div\n      0xffffffffffffffffffffffffffffffffffffffff\n      and\n        /* \"contracts/CAC.sol\":585:604  msg.sender == owner */\n      0xffffffffffffffffffffffffffffffffffffffff\n      and\n        /* \"contracts/CAC.sol\":585:595  msg.sender */\n      caller\n        /* \"contracts/CAC.sol\":585:604  msg.sender == owner */\n      0xffffffffffffffffffffffffffffffffffffffff\n      and\n      eq\n        /* \"contracts/CAC.sol\":577:630  require(msg.sender == owner, \"You are not the owner\") */\n      tag_12\n      jumpi\n      mload(0x40)\n      0x08c379a000000000000000000000000000000000000000000000000000000000\n      dup2\n      mstore\n      0x04\n      add\n      tag_13\n      swap1\n      tag_14\n      jump\t// in\n    tag_13:\n      mload(0x40)\n      dup1\n      swap2\n      sub\n      swap1\n      revert\n    tag_12:\n        /* \"contracts/CAC.sol\":877:891  uint allowance */\n      0x00\n        /* \"contracts/CAC.sol\":894:909  associatedToken */\n      dup1\n      0x00\n      swap1\n      sload\n      swap1\n      0x0100\n      exp\n      swap1\n      div\n      0xffffffffffffffffffffffffffffffffffffffff\n      and\n        /* \"contracts/CAC.sol\":894:919  associatedToken.allowance */\n      0xffffffffffffffffffffffffffffffffffffffff\n      and\n      0xdd62ed3e\n        /* \"contracts/CAC.sol\":920:930  msg.sender */\n      caller\n        /* \"contracts/CAC.sol\":940:944  this */\n      address\n        /* \"contracts/CAC.sol\":894:946  associatedToken.allowance(msg.sender, address(this)) */\n      mload(0x40)\n      dup4\n      0xffffffff\n      and\n      0xe0\n      shl\n      dup2\n      mstore\n      0x04\n      add\n      tag_16\n      swap3\n      swap2\n      swap1\n      tag_17\n      jump\t// in\n    tag_16:\n      0x20\n      mload(0x40)\n      dup1\n      dup4\n      sub\n      dup2\n      dup7\n      gas\n      staticcall\n      iszero\n      dup1\n      iszero\n      tag_19\n      jumpi\n      returndatasize\n      0x00\n      dup1\n      returndatacopy\n      revert(0x00, returndatasize)\n    tag_19:\n      pop\n      pop\n      pop\n      pop\n      mload(0x40)\n      returndatasize\n      not(0x1f)\n      0x1f\n      dup3\n      add\n      and\n      dup3\n      add\n      dup1\n      0x40\n      mstore\n      pop\n      dup2\n      add\n      swap1\n      tag_20\n      swap2\n      swap1\n      tag_21\n      jump\t// in\n    tag_20:\n        /* \"contracts/CAC.sol\":877:946  uint allowance = associatedToken.allowance(msg.sender, address(this)) */\n      swap1\n      pop\n        /* \"contracts/CAC.sol\":977:978  0 */\n      0x00\n        /* \"contracts/CAC.sol\":965:974  allowance */\n      dup2\n        /* \"contracts/CAC.sol\":965:978  allowance > 0 */\n      gt\n        /* \"contracts/CAC.sol\":957:1034  require(allowance > 0, \" You mush allow this contract to at least one token\") */\n      tag_22\n      jumpi\n      mload(0x40)\n      0x08c379a000000000000000000000000000000000000000000000000000000000\n      dup2\n      mstore\n      0x04\n      add\n      tag_23\n      swap1\n      tag_24\n      jump\t// in\n    tag_23:\n      mload(0x40)\n      dup1\n      swap2\n      sub\n      swap1\n      revert\n    tag_22:\n        /* \"contracts/CAC.sol\":1045:1054  bool sent */\n      0x00\n        /* \"contracts/CAC.sol\":1057:1072  associatedToken */\n      dup1\n      0x00\n      swap1\n      sload\n      swap1\n      0x0100\n      exp\n      swap1\n      div\n      0xffffffffffffffffffffffffffffffffffffffff\n      and\n        /* \"contracts/CAC.sol\":1057:1085  associatedToken.transferFrom */\n      0xffffffffffffffffffffffffffffffffffffffff\n      and\n      0x23b872dd\n        /* \"contracts/CAC.sol\":1086:1096  msg.sender */\n      caller\n        /* \"contracts/CAC.sol\":1106:1110  this */\n      address\n        /* \"contracts/CAC.sol\":1113:1122  allowance */\n      dup6\n        /* \"contracts/CAC.sol\":1057:1123  associatedToken.transferFrom(msg.sender, address(this), allowance) */\n      mload(0x40)\n      dup5\n      0xffffffff\n      and\n      0xe0\n      shl\n      dup2\n      mstore\n      0x04\n      add\n      tag_25\n      swap4\n      swap3\n      swap2\n      swap1\n      tag_26\n      jump\t// in\n    tag_25:\n      0x20\n      mload(0x40)\n      dup1\n      dup4\n      sub\n      dup2\n      0x00\n      dup8\n      gas\n      call\n      iszero\n      dup1\n      iszero\n      tag_28\n      jumpi\n      returndatasize\n      0x00\n      dup1\n      returndatacopy\n      revert(0x00, returndatasize)\n    tag_28:\n      pop\n      pop\n      pop\n      pop\n      mload(0x40)\n      returndatasize\n      not(0x1f)\n      0x1f\n      dup3\n      add\n      and\n      dup3\n      add\n      dup1\n      0x40\n      mstore\n      pop\n      dup2\n      add\n      swap1\n      tag_29\n      swap2\n      swap1\n      tag_30\n      jump\t// in\n    tag_29:\n        /* \"contracts/CAC.sol\":1045:1123  bool sent = associatedToken.transferFrom(msg.sender, address(this), allowance) */\n      swap1\n      pop\n        /* \"contracts/CAC.sol\":1142:1146  sent */\n      dup1\n        /* \"contracts/CAC.sol\":1134:1165  require(sent, \"failed to send\") */\n      tag_31\n      jumpi\n      mload(0x40)\n      0x08c379a000000000000000000000000000000000000000000000000000000000\n      dup2\n      mstore\n      0x04\n      add\n      tag_32\n      swap1\n      tag_33\n      jump\t// in\n    tag_32:\n      mload(0x40)\n      dup1\n      swap2\n      sub\n      swap1\n      revert\n    tag_31:\n        /* \"contracts/CAC.sol\":866:1173  {... */\n      pop\n      pop\n        /* \"contracts/CAC.sol\":826:1173  function sell() external onlyOwner... */\n      jump\t// out\n        /* \"contracts/CAC.sol\":148:177  IERC20 public associatedToken */\n    tag_8:\n      0x00\n      dup1\n      sload\n      swap1\n      0x0100\n      exp\n      swap1\n      div\n      0xffffffffffffffffffffffffffffffffffffffff\n      and\n      dup2\n      jump\t// out\n        /* \"#utility.yul\":7:133   */\n    tag_34:\n        /* \"#utility.yul\":44:51   */\n      0x00\n        /* \"#utility.yul\":84:126   */\n      0xffffffffffffffffffffffffffffffffffffffff\n        /* \"#utility.yul\":77:82   */\n      dup3\n        /* \"#utility.yul\":73:127   */\n      and\n        /* \"#utility.yul\":62:127   */\n      swap1\n      pop\n        /* \"#utility.yul\":7:133   */\n      swap2\n      swap1\n      pop\n      jump\t// out\n        /* \"#utility.yul\":139:199   */\n    tag_35:\n        /* \"#utility.yul\":167:170   */\n      0x00\n        /* \"#utility.yul\":188:193   */\n      dup2\n        /* \"#utility.yul\":181:193   */\n      swap1\n      pop\n        /* \"#utility.yul\":139:199   */\n      swap2\n      swap1\n      pop\n      jump\t// out\n        /* \"#utility.yul\":205:347   */\n    tag_36:\n        /* \"#utility.yul\":255:264   */\n      0x00\n        /* \"#utility.yul\":288:341   */\n      tag_63\n        /* \"#utility.yul\":306:340   */\n      tag_64\n        /* \"#utility.yul\":315:339   */\n      tag_65\n        /* \"#utility.yul\":333:338   */\n      dup5\n        /* \"#utility.yul\":315:339   */\n      tag_34\n      jump\t// in\n    tag_65:\n        /* \"#utility.yul\":306:340   */\n      tag_35\n      jump\t// in\n    tag_64:\n        /* \"#utility.yul\":288:341   */\n      tag_34\n      jump\t// in\n    tag_63:\n        /* \"#utility.yul\":275:341   */\n      swap1\n      pop\n        /* \"#utility.yul\":205:347   */\n      swap2\n      swap1\n      pop\n      jump\t// out\n        /* \"#utility.yul\":353:479   */\n    tag_37:\n        /* \"#utility.yul\":403:412   */\n      0x00\n        /* \"#utility.yul\":436:473   */\n      tag_67\n        /* \"#utility.yul\":467:472   */\n      dup3\n        /* \"#utility.yul\":436:473   */\n      tag_36\n      jump\t// in\n    tag_67:\n        /* \"#utility.yul\":423:473   */\n      swap1\n      pop\n        /* \"#utility.yul\":353:479   */\n      swap2\n      swap1\n      pop\n      jump\t// out\n        /* \"#utility.yul\":485:625   */\n    tag_38:\n        /* \"#utility.yul\":549:558   */\n      0x00\n        /* \"#utility.yul\":582:619   */\n      tag_69\n        /* \"#utility.yul\":613:618   */\n      dup3\n        /* \"#utility.yul\":582:619   */\n      tag_37\n      jump\t// in\n    tag_69:\n        /* \"#utility.yul\":569:619   */\n      swap1\n      pop\n        /* \"#utility.yul\":485:625   */\n      swap2\n      swap1\n      pop\n      jump\t// out\n        /* \"#utility.yul\":631:790   */\n    tag_39:\n        /* \"#utility.yul\":732:783   */\n      tag_71\n        /* \"#utility.yul\":777:782   */\n      dup2\n        /* \"#utility.yul\":732:783   */\n      tag_38\n      jump\t// in\n    tag_71:\n        /* \"#utility.yul\":727:730   */\n      dup3\n        /* \"#utility.yul\":720:784   */\n      mstore\n        /* \"#utility.yul\":631:790   */\n      pop\n      pop\n      jump\t// out\n        /* \"#utility.yul\":796:1046   */\n    tag_10:\n        /* \"#utility.yul\":903:907   */\n      0x00\n        /* \"#utility.yul\":941:943   */\n      0x20\n        /* \"#utility.yul\":930:939   */\n      dup3\n        /* \"#utility.yul\":926:944   */\n      add\n        /* \"#utility.yul\":918:944   */\n      swap1\n      pop\n        /* \"#utility.yul\":954:1039   */\n      tag_73\n        /* \"#utility.yul\":1036:1037   */\n      0x00\n        /* \"#utility.yul\":1025:1034   */\n      dup4\n        /* \"#utility.yul\":1021:1038   */\n      add\n        /* \"#utility.yul\":1012:1018   */\n      dup5\n        /* \"#utility.yul\":954:1039   */\n      tag_39\n      jump\t// in\n    tag_73:\n        /* \"#utility.yul\":796:1046   */\n      swap3\n      swap2\n      pop\n      pop\n      jump\t// out\n        /* \"#utility.yul\":1052:1221   */\n    tag_40:\n        /* \"#utility.yul\":1136:1147   */\n      0x00\n        /* \"#utility.yul\":1170:1176   */\n      dup3\n        /* \"#utility.yul\":1165:1168   */\n      dup3\n        /* \"#utility.yul\":1158:1177   */\n      mstore\n        /* \"#utility.yul\":1210:1214   */\n      0x20\n        /* \"#utility.yul\":1205:1208   */\n      dup3\n        /* \"#utility.yul\":1201:1215   */\n      add\n        /* \"#utility.yul\":1186:1215   */\n      swap1\n      pop\n        /* \"#utility.yul\":1052:1221   */\n      swap3\n      swap2\n      pop\n      pop\n      jump\t// out\n        /* \"#utility.yul\":1227:1398   */\n    tag_41:\n        /* \"#utility.yul\":1367:1390   */\n      0x596f7520617265206e6f7420746865206f776e65720000000000000000000000\n        /* \"#utility.yul\":1363:1364   */\n      0x00\n        /* \"#utility.yul\":1355:1361   */\n      dup3\n        /* \"#utility.yul\":1351:1365   */\n      add\n        /* \"#utility.yul\":1344:1391   */\n      mstore\n        /* \"#utility.yul\":1227:1398   */\n      pop\n      jump\t// out\n        /* \"#utility.yul\":1404:1770   */\n    tag_42:\n        /* \"#utility.yul\":1546:1549   */\n      0x00\n        /* \"#utility.yul\":1567:1634   */\n      tag_77\n        /* \"#utility.yul\":1631:1633   */\n      0x15\n        /* \"#utility.yul\":1626:1629   */\n      dup4\n        /* \"#utility.yul\":1567:1634   */\n      tag_40\n      jump\t// in\n    tag_77:\n        /* \"#utility.yul\":1560:1634   */\n      swap2\n      pop\n        /* \"#utility.yul\":1643:1736   */\n      tag_78\n        /* \"#utility.yul\":1732:1735   */\n      dup3\n        /* \"#utility.yul\":1643:1736   */\n      tag_41\n      jump\t// in\n    tag_78:\n        /* \"#utility.yul\":1761:1763   */\n      0x20\n        /* \"#utility.yul\":1756:1759   */\n      dup3\n        /* \"#utility.yul\":1752:1764   */\n      add\n        /* \"#utility.yul\":1745:1764   */\n      swap1\n      pop\n        /* \"#utility.yul\":1404:1770   */\n      swap2\n      swap1\n      pop\n      jump\t// out\n        /* \"#utility.yul\":1776:2195   */\n    tag_14:\n        /* \"#utility.yul\":1942:1946   */\n      0x00\n        /* \"#utility.yul\":1980:1982   */\n      0x20\n        /* \"#utility.yul\":1969:1978   */\n      dup3\n        /* \"#utility.yul\":1965:1983   */\n      add\n        /* \"#utility.yul\":1957:1983   */\n      swap1\n      pop\n        /* \"#utility.yul\":2029:2038   */\n      dup2\n        /* \"#utility.yul\":2023:2027   */\n      dup2\n        /* \"#utility.yul\":2019:2039   */\n      sub\n        /* \"#utility.yul\":2015:2016   */\n      0x00\n        /* \"#utility.yul\":2004:2013   */\n      dup4\n        /* \"#utility.yul\":2000:2017   */\n      add\n        /* \"#utility.yul\":1993:2040   */\n      mstore\n        /* \"#utility.yul\":2057:2188   */\n      tag_80\n        /* \"#utility.yul\":2183:2187   */\n      dup2\n        /* \"#utility.yul\":2057:2188   */\n      tag_42\n      jump\t// in\n    tag_80:\n        /* \"#utility.yul\":2049:2188   */\n      swap1\n      pop\n        /* \"#utility.yul\":1776:2195   */\n      swap2\n      swap1\n      pop\n      jump\t// out\n        /* \"#utility.yul\":2201:2297   */\n    tag_43:\n        /* \"#utility.yul\":2238:2245   */\n      0x00\n        /* \"#utility.yul\":2267:2291   */\n      tag_82\n        /* \"#utility.yul\":2285:2290   */\n      dup3\n        /* \"#utility.yul\":2267:2291   */\n      tag_34\n      jump\t// in\n    tag_82:\n        /* \"#utility.yul\":2256:2291   */\n      swap1\n      pop\n        /* \"#utility.yul\":2201:2297   */\n      swap2\n      swap1\n      pop\n      jump\t// out\n        /* \"#utility.yul\":2303:2421   */\n    tag_44:\n        /* \"#utility.yul\":2390:2414   */\n      tag_84\n        /* \"#utility.yul\":2408:2413   */\n      dup2\n        /* \"#utility.yul\":2390:2414   */\n      tag_43\n      jump\t// in\n    tag_84:\n        /* \"#utility.yul\":2385:2388   */\n      dup3\n        /* \"#utility.yul\":2378:2415   */\n      mstore\n        /* \"#utility.yul\":2303:2421   */\n      pop\n      pop\n      jump\t// out\n        /* \"#utility.yul\":2427:2759   */\n    tag_17:\n        /* \"#utility.yul\":2548:2552   */\n      0x00\n        /* \"#utility.yul\":2586:2588   */\n      0x40\n        /* \"#utility.yul\":2575:2584   */\n      dup3\n        /* \"#utility.yul\":2571:2589   */\n      add\n        /* \"#utility.yul\":2563:2589   */\n      swap1\n      pop\n        /* \"#utility.yul\":2599:2670   */\n      tag_86\n        /* \"#utility.yul\":2667:2668   */\n      0x00\n        /* \"#utility.yul\":2656:2665   */\n      dup4\n        /* \"#utility.yul\":2652:2669   */\n      add\n        /* \"#utility.yul\":2643:2649   */\n      dup6\n        /* \"#utility.yul\":2599:2670   */\n      tag_44\n      jump\t// in\n    tag_86:\n        /* \"#utility.yul\":2680:2752   */\n      tag_87\n        /* \"#utility.yul\":2748:2750   */\n      0x20\n        /* \"#utility.yul\":2737:2746   */\n      dup4\n        /* \"#utility.yul\":2733:2751   */\n      add\n        /* \"#utility.yul\":2724:2730   */\n      dup5\n        /* \"#utility.yul\":2680:2752   */\n      tag_44\n      jump\t// in\n    tag_87:\n        /* \"#utility.yul\":2427:2759   */\n      swap4\n      swap3\n      pop\n      pop\n      pop\n      jump\t// out\n        /* \"#utility.yul\":2846:2963   */\n    tag_46:\n        /* \"#utility.yul\":2955:2956   */\n      0x00\n        /* \"#utility.yul\":2952:2953   */\n      dup1\n        /* \"#utility.yul\":2945:2957   */\n      revert\n        /* \"#utility.yul\":3092:3169   */\n    tag_48:\n        /* \"#utility.yul\":3129:3136   */\n      0x00\n        /* \"#utility.yul\":3158:3163   */\n      dup2\n        /* \"#utility.yul\":3147:3163   */\n      swap1\n      pop\n        /* \"#utility.yul\":3092:3169   */\n      swap2\n      swap1\n      pop\n      jump\t// out\n        /* \"#utility.yul\":3175:3297   */\n    tag_49:\n        /* \"#utility.yul\":3248:3272   */\n      tag_93\n        /* \"#utility.yul\":3266:3271   */\n      dup2\n        /* \"#utility.yul\":3248:3272   */\n      tag_48\n      jump\t// in\n    tag_93:\n        /* \"#utility.yul\":3241:3246   */\n      dup2\n        /* \"#utility.yul\":3238:3273   */\n      eq\n        /* \"#utility.yul\":3228:3291   */\n      tag_94\n      jumpi\n        /* \"#utility.yul\":3287:3288   */\n      0x00\n        /* \"#utility.yul\":3284:3285   */\n      dup1\n        /* \"#utility.yul\":3277:3289   */\n      revert\n        /* \"#utility.yul\":3228:3291   */\n    tag_94:\n        /* \"#utility.yul\":3175:3297   */\n      pop\n      jump\t// out\n        /* \"#utility.yul\":3303:3446   */\n    tag_50:\n        /* \"#utility.yul\":3360:3365   */\n      0x00\n        /* \"#utility.yul\":3391:3397   */\n      dup2\n        /* \"#utility.yul\":3385:3398   */\n      mload\n        /* \"#utility.yul\":3376:3398   */\n      swap1\n      pop\n        /* \"#utility.yul\":3407:3440   */\n      tag_96\n        /* \"#utility.yul\":3434:3439   */\n      dup2\n        /* \"#utility.yul\":3407:3440   */\n      tag_49\n      jump\t// in\n    tag_96:\n        /* \"#utility.yul\":3303:3446   */\n      swap3\n      swap2\n      pop\n      pop\n      jump\t// out\n        /* \"#utility.yul\":3452:3803   */\n    tag_21:\n        /* \"#utility.yul\":3522:3528   */\n      0x00\n        /* \"#utility.yul\":3571:3573   */\n      0x20\n        /* \"#utility.yul\":3559:3568   */\n      dup3\n        /* \"#utility.yul\":3550:3557   */\n      dup5\n        /* \"#utility.yul\":3546:3569   */\n      sub\n        /* \"#utility.yul\":3542:3574   */\n      slt\n        /* \"#utility.yul\":3539:3658   */\n      iszero\n      tag_98\n      jumpi\n        /* \"#utility.yul\":3577:3656   */\n      tag_99\n      tag_46\n      jump\t// in\n    tag_99:\n        /* \"#utility.yul\":3539:3658   */\n    tag_98:\n        /* \"#utility.yul\":3697:3698   */\n      0x00\n        /* \"#utility.yul\":3722:3786   */\n      tag_100\n        /* \"#utility.yul\":3778:3785   */\n      dup5\n        /* \"#utility.yul\":3769:3775   */\n      dup3\n        /* \"#utility.yul\":3758:3767   */\n      dup6\n        /* \"#utility.yul\":3754:3776   */\n      add\n        /* \"#utility.yul\":3722:3786   */\n      tag_50\n      jump\t// in\n    tag_100:\n        /* \"#utility.yul\":3712:3786   */\n      swap2\n      pop\n        /* \"#utility.yul\":3668:3796   */\n      pop\n        /* \"#utility.yul\":3452:3803   */\n      swap3\n      swap2\n      pop\n      pop\n      jump\t// out\n        /* \"#utility.yul\":3809:4047   */\n    tag_51:\n        /* \"#utility.yul\":3949:3983   */\n      0x20596f75206d75736820616c6c6f77207468697320636f6e747261637420746f\n        /* \"#utility.yul\":3945:3946   */\n      0x00\n        /* \"#utility.yul\":3937:3943   */\n      dup3\n        /* \"#utility.yul\":3933:3947   */\n      add\n        /* \"#utility.yul\":3926:3984   */\n      mstore\n        /* \"#utility.yul\":4018:4039   */\n      0x206174206c65617374206f6e6520746f6b656e00000000000000000000000000\n        /* \"#utility.yul\":4013:4015   */\n      0x20\n        /* \"#utility.yul\":4005:4011   */\n      dup3\n        /* \"#utility.yul\":4001:4016   */\n      add\n        /* \"#utility.yul\":3994:4040   */\n      mstore\n        /* \"#utility.yul\":3809:4047   */\n      pop\n      jump\t// out\n        /* \"#utility.yul\":4053:4419   */\n    tag_52:\n        /* \"#utility.yul\":4195:4198   */\n      0x00\n        /* \"#utility.yul\":4216:4283   */\n      tag_103\n        /* \"#utility.yul\":4280:4282   */\n      0x33\n        /* \"#utility.yul\":4275:4278   */\n      dup4\n        /* \"#utility.yul\":4216:4283   */\n      tag_40\n      jump\t// in\n    tag_103:\n        /* \"#utility.yul\":4209:4283   */\n      swap2\n      pop\n        /* \"#utility.yul\":4292:4385   */\n      tag_104\n        /* \"#utility.yul\":4381:4384   */\n      dup3\n        /* \"#utility.yul\":4292:4385   */\n      tag_51\n      jump\t// in\n    tag_104:\n        /* \"#utility.yul\":4410:4412   */\n      0x40\n        /* \"#utility.yul\":4405:4408   */\n      dup3\n        /* \"#utility.yul\":4401:4413   */\n      add\n        /* \"#utility.yul\":4394:4413   */\n      swap1\n      pop\n        /* \"#utility.yul\":4053:4419   */\n      swap2\n      swap1\n      pop\n      jump\t// out\n        /* \"#utility.yul\":4425:4844   */\n    tag_24:\n        /* \"#utility.yul\":4591:4595   */\n      0x00\n        /* \"#utility.yul\":4629:4631   */\n      0x20\n        /* \"#utility.yul\":4618:4627   */\n      dup3\n        /* \"#utility.yul\":4614:4632   */\n      add\n        /* \"#utility.yul\":4606:4632   */\n      swap1\n      pop\n        /* \"#utility.yul\":4678:4687   */\n      dup2\n        /* \"#utility.yul\":4672:4676   */\n      dup2\n        /* \"#utility.yul\":4668:4688   */\n      sub\n        /* \"#utility.yul\":4664:4665   */\n      0x00\n        /* \"#utility.yul\":4653:4662   */\n      dup4\n        /* \"#utility.yul\":4649:4666   */\n      add\n        /* \"#utility.yul\":4642:4689   */\n      mstore\n        /* \"#utility.yul\":4706:4837   */\n      tag_106\n        /* \"#utility.yul\":4832:4836   */\n      dup2\n        /* \"#utility.yul\":4706:4837   */\n      tag_52\n      jump\t// in\n    tag_106:\n        /* \"#utility.yul\":4698:4837   */\n      swap1\n      pop\n        /* \"#utility.yul\":4425:4844   */\n      swap2\n      swap1\n      pop\n      jump\t// out\n        /* \"#utility.yul\":4850:4968   */\n    tag_53:\n        /* \"#utility.yul\":4937:4961   */\n      tag_108\n        /* \"#utility.yul\":4955:4960   */\n      dup2\n        /* \"#utility.yul\":4937:4961   */\n      tag_48\n      jump\t// in\n    tag_108:\n        /* \"#utility.yul\":4932:4935   */\n      dup3\n        /* \"#utility.yul\":4925:4962   */\n      mstore\n        /* \"#utility.yul\":4850:4968   */\n      pop\n      pop\n      jump\t// out\n        /* \"#utility.yul\":4974:5416   */\n    tag_26:\n        /* \"#utility.yul\":5123:5127   */\n      0x00\n        /* \"#utility.yul\":5161:5163   */\n      0x60\n        /* \"#utility.yul\":5150:5159   */\n      dup3\n        /* \"#utility.yul\":5146:5164   */\n      add\n        /* \"#utility.yul\":5138:5164   */\n      swap1\n      pop\n        /* \"#utility.yul\":5174:5245   */\n      tag_110\n        /* \"#utility.yul\":5242:5243   */\n      0x00\n        /* \"#utility.yul\":5231:5240   */\n      dup4\n        /* \"#utility.yul\":5227:5244   */\n      add\n        /* \"#utility.yul\":5218:5224   */\n      dup7\n        /* \"#utility.yul\":5174:5245   */\n      tag_44\n      jump\t// in\n    tag_110:\n        /* \"#utility.yul\":5255:5327   */\n      tag_111\n        /* \"#utility.yul\":5323:5325   */\n      0x20\n        /* \"#utility.yul\":5312:5321   */\n      dup4\n        /* \"#utility.yul\":5308:5326   */\n      add\n        /* \"#utility.yul\":5299:5305   */\n      dup6\n        /* \"#utility.yul\":5255:5327   */\n      tag_44\n      jump\t// in\n    tag_111:\n        /* \"#utility.yul\":5337:5409   */\n      tag_112\n        /* \"#utility.yul\":5405:5407   */\n      0x40\n        /* \"#utility.yul\":5394:5403   */\n      dup4\n        /* \"#utility.yul\":5390:5408   */\n      add\n        /* \"#utility.yul\":5381:5387   */\n      dup5\n        /* \"#utility.yul\":5337:5409   */\n      tag_53\n      jump\t// in\n    tag_112:\n        /* \"#utility.yul\":4974:5416   */\n      swap5\n      swap4\n      pop\n      pop\n      pop\n      pop\n      jump\t// out\n        /* \"#utility.yul\":5422:5512   */\n    tag_54:\n        /* \"#utility.yul\":5456:5463   */\n      0x00\n        /* \"#utility.yul\":5499:5504   */\n      dup2\n        /* \"#utility.yul\":5492:5505   */\n      iszero\n        /* \"#utility.yul\":5485:5506   */\n      iszero\n        /* \"#utility.yul\":5474:5506   */\n      swap1\n      pop\n        /* \"#utility.yul\":5422:5512   */\n      swap2\n      swap1\n      pop\n      jump\t// out\n        /* \"#utility.yul\":5518:5634   */\n    tag_55:\n        /* \"#utility.yul\":5588:5609   */\n      tag_115\n        /* \"#utility.yul\":5603:5608   */\n      dup2\n        /* \"#utility.yul\":5588:5609   */\n      tag_54\n      jump\t// in\n    tag_115:\n        /* \"#utility.yul\":5581:5586   */\n      dup2\n        /* \"#utility.yul\":5578:5610   */\n      eq\n        /* \"#utility.yul\":5568:5628   */\n      tag_116\n      jumpi\n        /* \"#utility.yul\":5624:5625   */\n      0x00\n        /* \"#utility.yul\":5621:5622   */\n      dup1\n        /* \"#utility.yul\":5614:5626   */\n      revert\n        /* \"#utility.yul\":5568:5628   */\n    tag_116:\n        /* \"#utility.yul\":5518:5634   */\n      pop\n      jump\t// out\n        /* \"#utility.yul\":5640:5777   */\n    tag_56:\n        /* \"#utility.yul\":5694:5699   */\n      0x00\n        /* \"#utility.yul\":5725:5731   */\n      dup2\n        /* \"#utility.yul\":5719:5732   */\n      mload\n        /* \"#utility.yul\":5710:5732   */\n      swap1\n      pop\n        /* \"#utility.yul\":5741:5771   */\n      tag_118\n        /* \"#utility.yul\":5765:5770   */\n      dup2\n        /* \"#utility.yul\":5741:5771   */\n      tag_55\n      jump\t// in\n    tag_118:\n        /* \"#utility.yul\":5640:5777   */\n      swap3\n      swap2\n      pop\n      pop\n      jump\t// out\n        /* \"#utility.yul\":5783:6128   */\n    tag_30:\n        /* \"#utility.yul\":5850:5856   */\n      0x00\n        /* \"#utility.yul\":5899:5901   */\n      0x20\n        /* \"#utility.yul\":5887:5896   */\n      dup3\n        /* \"#utility.yul\":5878:5885   */\n      dup5\n        /* \"#utility.yul\":5874:5897   */\n      sub\n        /* \"#utility.yul\":5870:5902   */\n      slt\n        /* \"#utility.yul\":5867:5986   */\n      iszero\n      tag_120\n      jumpi\n        /* \"#utility.yul\":5905:5984   */\n      tag_121\n      tag_46\n      jump\t// in\n    tag_121:\n        /* \"#utility.yul\":5867:5986   */\n    tag_120:\n        /* \"#utility.yul\":6025:6026   */\n      0x00\n        /* \"#utility.yul\":6050:6111   */\n      tag_122\n        /* \"#utility.yul\":6103:6110   */\n      dup5\n        /* \"#utility.yul\":6094:6100   */\n      dup3\n        /* \"#utility.yul\":6083:6092   */\n      dup6\n        /* \"#utility.yul\":6079:6101   */\n      add\n        /* \"#utility.yul\":6050:6111   */\n      tag_56\n      jump\t// in\n    tag_122:\n        /* \"#utility.yul\":6040:6111   */\n      swap2\n      pop\n        /* \"#utility.yul\":5996:6121   */\n      pop\n        /* \"#utility.yul\":5783:6128   */\n      swap3\n      swap2\n      pop\n      pop\n      jump\t// out\n        /* \"#utility.yul\":6134:6298   */\n    tag_57:\n        /* \"#utility.yul\":6274:6290   */\n      0x6661696c656420746f2073656e64000000000000000000000000000000000000\n        /* \"#utility.yul\":6270:6271   */\n      0x00\n        /* \"#utility.yul\":6262:6268   */\n      dup3\n        /* \"#utility.yul\":6258:6272   */\n      add\n        /* \"#utility.yul\":6251:6291   */\n      mstore\n        /* \"#utility.yul\":6134:6298   */\n      pop\n      jump\t// out\n        /* \"#utility.yul\":6304:6670   */\n    tag_58:\n        /* \"#utility.yul\":6446:6449   */\n      0x00\n        /* \"#utility.yul\":6467:6534   */\n      tag_125\n        /* \"#utility.yul\":6531:6533   */\n      0x0e\n        /* \"#utility.yul\":6526:6529   */\n      dup4\n        /* \"#utility.yul\":6467:6534   */\n      tag_40\n      jump\t// in\n    tag_125:\n        /* \"#utility.yul\":6460:6534   */\n      swap2\n      pop\n        /* \"#utility.yul\":6543:6636   */\n      tag_126\n        /* \"#utility.yul\":6632:6635   */\n      dup3\n        /* \"#utility.yul\":6543:6636   */\n      tag_57\n      jump\t// in\n    tag_126:\n        /* \"#utility.yul\":6661:6663   */\n      0x20\n        /* \"#utility.yul\":6656:6659   */\n      dup3\n        /* \"#utility.yul\":6652:6664   */\n      add\n        /* \"#utility.yul\":6645:6664   */\n      swap1\n      pop\n        /* \"#utility.yul\":6304:6670   */\n      swap2\n      swap1\n      pop\n      jump\t// out\n        /* \"#utility.yul\":6676:7095   */\n    tag_33:\n        /* \"#utility.yul\":6842:6846   */\n      0x00\n        /* \"#utility.yul\":6880:6882   */\n      0x20\n        /* \"#utility.yul\":6869:6878   */\n      dup3\n        /* \"#utility.yul\":6865:6883   */\n      add\n        /* \"#utility.yul\":6857:6883   */\n      swap1\n      pop\n        /* \"#utility.yul\":6929:6938   */\n      dup2\n        /* \"#utility.yul\":6923:6927   */\n      dup2\n        /* \"#utility.yul\":6919:6939   */\n      sub\n        /* \"#utility.yul\":6915:6916   */\n      0x00\n        /* \"#utility.yul\":6904:6913   */\n      dup4\n        /* \"#utility.yul\":6900:6917   */\n      add\n        /* \"#utility.yul\":6893:6940   */\n      mstore\n        /* \"#utility.yul\":6957:7088   */\n      tag_128\n        /* \"#utility.yul\":7083:7087   */\n      dup2\n        /* \"#utility.yul\":6957:7088   */\n      tag_58\n      jump\t// in\n    tag_128:\n        /* \"#utility.yul\":6949:7088   */\n      swap1\n      pop\n        /* \"#utility.yul\":6676:7095   */\n      swap2\n      swap1\n      pop\n      jump\t// out\n\n    auxdata: 0xa26469706673582212209d267aca20e904c32fb1bac3e23e4b9e68dbd4159f0d363d96c5f5a9ab335b2664736f6c63430008160033\n}\n",
				"bytecode": {
					"linkReferences": {},
					"object": "608060405234801561000f575f80fd5b5060405161080438038061080483398181016040528101906100319190610160565b815f806101000a81548173ffffffffffffffffffffffffffffffffffffffff021916908373ffffffffffffffffffffffffffffffffffffffff1602179055503360025f6101000a81548173ffffffffffffffffffffffffffffffffffffffff021916908373ffffffffffffffffffffffffffffffffffffffff16021790555080600181905550505061019e565b5f80fd5b5f73ffffffffffffffffffffffffffffffffffffffff82169050919050565b5f6100eb826100c2565b9050919050565b5f6100fc826100e1565b9050919050565b61010c816100f2565b8114610116575f80fd5b50565b5f8151905061012781610103565b92915050565b5f819050919050565b61013f8161012d565b8114610149575f80fd5b50565b5f8151905061015a81610136565b92915050565b5f8060408385031215610176576101756100be565b5b5f61018385828601610119565b92505060206101948582860161014c565b9150509250929050565b610659806101ab5f395ff3fe608060405234801561000f575f80fd5b5060043610610034575f3560e01c80634571007414610038578063b3fc0d7b14610042575b5f80fd5b610040610060565b005b61004a6102b2565b604051610057919061034f565b60405180910390f35b60025f9054906101000a900473ffffffffffffffffffffffffffffffffffffffff1673ffffffffffffffffffffffffffffffffffffffff163373ffffffffffffffffffffffffffffffffffffffff16146100ef576040517f08c379a00000000000000000000000000000000000000000000000000000000081526004016100e6906103c2565b60405180910390fd5b5f805f9054906101000a900473ffffffffffffffffffffffffffffffffffffffff1673ffffffffffffffffffffffffffffffffffffffff1663dd62ed3e33306040518363ffffffff1660e01b815260040161014b929190610400565b602060405180830381865afa158015610166573d5f803e3d5ffd5b505050506040513d601f19601f8201168201806040525081019061018a919061045e565b90505f81116101ce576040517f08c379a00000000000000000000000000000000000000000000000000000000081526004016101c5906104f9565b60405180910390fd5b5f805f9054906101000a900473ffffffffffffffffffffffffffffffffffffffff1673ffffffffffffffffffffffffffffffffffffffff166323b872dd3330856040518463ffffffff1660e01b815260040161022c93929190610526565b6020604051808303815f875af1158015610248573d5f803e3d5ffd5b505050506040513d601f19601f8201168201806040525081019061026c9190610590565b9050806102ae576040517f08c379a00000000000000000000000000000000000000000000000000000000081526004016102a590610605565b60405180910390fd5b5050565b5f8054906101000a900473ffffffffffffffffffffffffffffffffffffffff1681565b5f73ffffffffffffffffffffffffffffffffffffffff82169050919050565b5f819050919050565b5f61031761031261030d846102d5565b6102f4565b6102d5565b9050919050565b5f610328826102fd565b9050919050565b5f6103398261031e565b9050919050565b6103498161032f565b82525050565b5f6020820190506103625f830184610340565b92915050565b5f82825260208201905092915050565b7f596f7520617265206e6f7420746865206f776e657200000000000000000000005f82015250565b5f6103ac601583610368565b91506103b782610378565b602082019050919050565b5f6020820190508181035f8301526103d9816103a0565b9050919050565b5f6103ea826102d5565b9050919050565b6103fa816103e0565b82525050565b5f6040820190506104135f8301856103f1565b61042060208301846103f1565b9392505050565b5f80fd5b5f819050919050565b61043d8161042b565b8114610447575f80fd5b50565b5f8151905061045881610434565b92915050565b5f6020828403121561047357610472610427565b5b5f6104808482850161044a565b91505092915050565b7f20596f75206d75736820616c6c6f77207468697320636f6e747261637420746f5f8201527f206174206c65617374206f6e6520746f6b656e00000000000000000000000000602082015250565b5f6104e3603383610368565b91506104ee82610489565b604082019050919050565b5f6020820190508181035f830152610510816104d7565b9050919050565b6105208161042b565b82525050565b5f6060820190506105395f8301866103f1565b61054660208301856103f1565b6105536040830184610517565b949350505050565b5f8115159050919050565b61056f8161055b565b8114610579575f80fd5b50565b5f8151905061058a81610566565b92915050565b5f602082840312156105a5576105a4610427565b5b5f6105b28482850161057c565b91505092915050565b7f6661696c656420746f2073656e640000000000000000000000000000000000005f82015250565b5f6105ef600e83610368565b91506105fa826105bb565b602082019050919050565b5f6020820190508181035f83015261061c816105e3565b905091905056fea26469706673582212209d267aca20e904c32fb1bac3e23e4b9e68dbd4159f0d363d96c5f5a9ab335b2664736f6c63430008160033",
					"opcodes": "PUSH1 0x80 PUSH1 0x40 MSTORE CALLVALUE DUP1 ISZERO PUSH2 0xF JUMPI PUSH0 DUP1 REVERT JUMPDEST POP PUSH1 0x40 MLOAD PUSH2 0x804 CODESIZE SUB DUP1 PUSH2 0x804 DUP4 CODECOPY DUP2 DUP2 ADD PUSH1 0x40 MSTORE DUP2 ADD SWAP1 PUSH2 0x31 SWAP2 SWAP1 PUSH2 0x160 JUMP JUMPDEST DUP2 PUSH0 DUP1 PUSH2 0x100 EXP DUP2 SLOAD DUP2 PUSH20 0xFFFFFFFFFFFFFFFFFFFFFFFFFFFFFFFFFFFFFFFF MUL NOT AND SWAP1 DUP4 PUSH20 0xFFFFFFFFFFFFFFFFFFFFFFFFFFFFFFFFFFFFFFFF AND MUL OR SWAP1 SSTORE POP CALLER PUSH1 0x2 PUSH0 PUSH2 0x100 EXP DUP2 SLOAD DUP2 PUSH20 0xFFFFFFFFFFFFFFFFFFFFFFFFFFFFFFFFFFFFFFFF MUL NOT AND SWAP1 DUP4 PUSH20 0xFFFFFFFFFFFFFFFFFFFFFFFFFFFFFFFFFFFFFFFF AND MUL OR SWAP1 SSTORE POP DUP1 PUSH1 0x1 DUP2 SWAP1 SSTORE POP POP POP PUSH2 0x19E JUMP JUMPDEST PUSH0 DUP1 REVERT JUMPDEST PUSH0 PUSH20 0xFFFFFFFFFFFFFFFFFFFFFFFFFFFFFFFFFFFFFFFF DUP3 AND SWAP1 POP SWAP2 SWAP1 POP JUMP JUMPDEST PUSH0 PUSH2 0xEB DUP3 PUSH2 0xC2 JUMP JUMPDEST SWAP1 POP SWAP2 SWAP1 POP JUMP JUMPDEST PUSH0 PUSH2 0xFC DUP3 PUSH2 0xE1 JUMP JUMPDEST SWAP1 POP SWAP2 SWAP1 POP JUMP JUMPDEST PUSH2 0x10C DUP2 PUSH2 0xF2 JUMP JUMPDEST DUP2 EQ PUSH2 0x116 JUMPI PUSH0 DUP1 REVERT JUMPDEST POP JUMP JUMPDEST PUSH0 DUP2 MLOAD SWAP1 POP PUSH2 0x127 DUP2 PUSH2 0x103 JUMP JUMPDEST SWAP3 SWAP2 POP POP JUMP JUMPDEST PUSH0 DUP2 SWAP1 POP SWAP2 SWAP1 POP JUMP JUMPDEST PUSH2 0x13F DUP2 PUSH2 0x12D JUMP JUMPDEST DUP2 EQ PUSH2 0x149 JUMPI PUSH0 DUP1 REVERT JUMPDEST POP JUMP JUMPDEST PUSH0 DUP2 MLOAD SWAP1 POP PUSH2 0x15A DUP2 PUSH2 0x136 JUMP JUMPDEST SWAP3 SWAP2 POP POP JUMP JUMPDEST PUSH0 DUP1 PUSH1 0x40 DUP4 DUP6 SUB SLT ISZERO PUSH2 0x176 JUMPI PUSH2 0x175 PUSH2 0xBE JUMP JUMPDEST JUMPDEST PUSH0 PUSH2 0x183 DUP6 DUP3 DUP7 ADD PUSH2 0x119 JUMP JUMPDEST SWAP3 POP POP PUSH1 0x20 PUSH2 0x194 DUP6 DUP3 DUP7 ADD PUSH2 0x14C JUMP JUMPDEST SWAP2 POP POP SWAP3 POP SWAP3 SWAP1 POP JUMP JUMPDEST PUSH2 0x659 DUP1 PUSH2 0x1AB PUSH0 CODECOPY PUSH0 RETURN INVALID PUSH1 0x80 PUSH1 0x40 MSTORE CALLVALUE DUP1 ISZERO PUSH2 0xF JUMPI PUSH0 DUP1 REVERT JUMPDEST POP PUSH1 0x4 CALLDATASIZE LT PUSH2 0x34 JUMPI PUSH0 CALLDATALOAD PUSH1 0xE0 SHR DUP1 PUSH4 0x45710074 EQ PUSH2 0x38 JUMPI DUP1 PUSH4 0xB3FC0D7B EQ PUSH2 0x42 JUMPI JUMPDEST PUSH0 DUP1 REVERT JUMPDEST PUSH2 0x40 PUSH2 0x60 JUMP JUMPDEST STOP JUMPDEST PUSH2 0x4A PUSH2 0x2B2 JUMP JUMPDEST PUSH1 0x40 MLOAD PUSH2 0x57 SWAP2 SWAP1 PUSH2 0x34F JUMP JUMPDEST PUSH1 0x40 MLOAD DUP1 SWAP2 SUB SWAP1 RETURN JUMPDEST PUSH1 0x2 PUSH0 SWAP1 SLOAD SWAP1 PUSH2 0x100 EXP SWAP1 DIV PUSH20 0xFFFFFFFFFFFFFFFFFFFFFFFFFFFFFFFFFFFFFFFF AND PUSH20 0xFFFFFFFFFFFFFFFFFFFFFFFFFFFFFFFFFFFFFFFF AND CALLER PUSH20 0xFFFFFFFFFFFFFFFFFFFFFFFFFFFFFFFFFFFFFFFF AND EQ PUSH2 0xEF JUMPI PUSH1 0x40 MLOAD PUSH32 0x8C379A000000000000000000000000000000000000000000000000000000000 DUP2 MSTORE PUSH1 0x4 ADD PUSH2 0xE6 SWAP1 PUSH2 0x3C2 JUMP JUMPDEST PUSH1 0x40 MLOAD DUP1 SWAP2 SUB SWAP1 REVERT JUMPDEST PUSH0 DUP1 PUSH0 SWAP1 SLOAD SWAP1 PUSH2 0x100 EXP SWAP1 DIV PUSH20 0xFFFFFFFFFFFFFFFFFFFFFFFFFFFFFFFFFFFFFFFF AND PUSH20 0xFFFFFFFFFFFFFFFFFFFFFFFFFFFFFFFFFFFFFFFF AND PUSH4 0xDD62ED3E CALLER ADDRESS PUSH1 0x40 MLOAD DUP4 PUSH4 0xFFFFFFFF AND PUSH1 0xE0 SHL DUP2 MSTORE PUSH1 0x4 ADD PUSH2 0x14B SWAP3 SWAP2 SWAP1 PUSH2 0x400 JUMP JUMPDEST PUSH1 0x20 PUSH1 0x40 MLOAD DUP1 DUP4 SUB DUP2 DUP7 GAS STATICCALL ISZERO DUP1 ISZERO PUSH2 0x166 JUMPI RETURNDATASIZE PUSH0 DUP1 RETURNDATACOPY RETURNDATASIZE PUSH0 REVERT JUMPDEST POP POP POP POP PUSH1 0x40 MLOAD RETURNDATASIZE PUSH1 0x1F NOT PUSH1 0x1F DUP3 ADD AND DUP3 ADD DUP1 PUSH1 0x40 MSTORE POP DUP2 ADD SWAP1 PUSH2 0x18A SWAP2 SWAP1 PUSH2 0x45E JUMP JUMPDEST SWAP1 POP PUSH0 DUP2 GT PUSH2 0x1CE JUMPI PUSH1 0x40 MLOAD PUSH32 0x8C379A000000000000000000000000000000000000000000000000000000000 DUP2 MSTORE PUSH1 0x4 ADD PUSH2 0x1C5 SWAP1 PUSH2 0x4F9 JUMP JUMPDEST PUSH1 0x40 MLOAD DUP1 SWAP2 SUB SWAP1 REVERT JUMPDEST PUSH0 DUP1 PUSH0 SWAP1 SLOAD SWAP1 PUSH2 0x100 EXP SWAP1 DIV PUSH20 0xFFFFFFFFFFFFFFFFFFFFFFFFFFFFFFFFFFFFFFFF AND PUSH20 0xFFFFFFFFFFFFFFFFFFFFFFFFFFFFFFFFFFFFFFFF AND PUSH4 0x23B872DD CALLER ADDRESS DUP6 PUSH1 0x40 MLOAD DUP5 PUSH4 0xFFFFFFFF AND PUSH1 0xE0 SHL DUP2 MSTORE PUSH1 0x4 ADD PUSH2 0x22C SWAP4 SWAP3 SWAP2 SWAP1 PUSH2 0x526 JUMP JUMPDEST PUSH1 0x20 PUSH1 0x40 MLOAD DUP1 DUP4 SUB DUP2 PUSH0 DUP8 GAS CALL ISZERO DUP1 ISZERO PUSH2 0x248 JUMPI RETURNDATASIZE PUSH0 DUP1 RETURNDATACOPY RETURNDATASIZE PUSH0 REVERT JUMPDEST POP POP POP POP PUSH1 0x40 MLOAD RETURNDATASIZE PUSH1 0x1F NOT PUSH1 0x1F DUP3 ADD AND DUP3 ADD DUP1 PUSH1 0x40 MSTORE POP DUP2 ADD SWAP1 PUSH2 0x26C SWAP2 SWAP1 PUSH2 0x590 JUMP JUMPDEST SWAP1 POP DUP1 PUSH2 0x2AE JUMPI PUSH1 0x40 MLOAD PUSH32 0x8C379A000000000000000000000000000000000000000000000000000000000 DUP2 MSTORE PUSH1 0x4 ADD PUSH2 0x2A5 SWAP1 PUSH2 0x605 JUMP JUMPDEST PUSH1 0x40 MLOAD DUP1 SWAP2 SUB SWAP1 REVERT JUMPDEST POP POP JUMP JUMPDEST PUSH0 DUP1 SLOAD SWAP1 PUSH2 0x100 EXP SWAP1 DIV PUSH20 0xFFFFFFFFFFFFFFFFFFFFFFFFFFFFFFFFFFFFFFFF AND DUP2 JUMP JUMPDEST PUSH0 PUSH20 0xFFFFFFFFFFFFFFFFFFFFFFFFFFFFFFFFFFFFFFFF DUP3 AND SWAP1 POP SWAP2 SWAP1 POP JUMP JUMPDEST PUSH0 DUP2 SWAP1 POP SWAP2 SWAP1 POP JUMP JUMPDEST PUSH0 PUSH2 0x317 PUSH2 0x312 PUSH2 0x30D DUP5 PUSH2 0x2D5 JUMP JUMPDEST PUSH2 0x2F4 JUMP JUMPDEST PUSH2 0x2D5 JUMP JUMPDEST SWAP1 POP SWAP2 SWAP1 POP JUMP JUMPDEST PUSH0 PUSH2 0x328 DUP3 PUSH2 0x2FD JUMP JUMPDEST SWAP1 POP SWAP2 SWAP1 POP JUMP JUMPDEST PUSH0 PUSH2 0x339 DUP3 PUSH2 0x31E JUMP JUMPDEST SWAP1 POP SWAP2 SWAP1 POP JUMP JUMPDEST PUSH2 0x349 DUP2 PUSH2 0x32F JUMP JUMPDEST DUP3 MSTORE POP POP JUMP JUMPDEST PUSH0 PUSH1 0x20 DUP3 ADD SWAP1 POP PUSH2 0x362 PUSH0 DUP4 ADD DUP5 PUSH2 0x340 JUMP JUMPDEST SWAP3 SWAP2 POP POP JUMP JUMPDEST PUSH0 DUP3 DUP3 MSTORE PUSH1 0x20 DUP3 ADD SWAP1 POP SWAP3 SWAP2 POP POP JUMP JUMPDEST PUSH32 0x596F7520617265206E6F7420746865206F776E65720000000000000000000000 PUSH0 DUP3 ADD MSTORE POP JUMP JUMPDEST PUSH0 PUSH2 0x3AC PUSH1 0x15 DUP4 PUSH2 0x368 JUMP JUMPDEST SWAP2 POP PUSH2 0x3B7 DUP3 PUSH2 0x378 JUMP JUMPDEST PUSH1 0x20 DUP3 ADD SWAP1 POP SWAP2 SWAP1 POP JUMP JUMPDEST PUSH0 PUSH1 0x20 DUP3 ADD SWAP1 POP DUP2 DUP2 SUB PUSH0 DUP4 ADD MSTORE PUSH2 0x3D9 DUP2 PUSH2 0x3A0 JUMP JUMPDEST SWAP1 POP SWAP2 SWAP1 POP JUMP JUMPDEST PUSH0 PUSH2 0x3EA DUP3 PUSH2 0x2D5 JUMP JUMPDEST SWAP1 POP SWAP2 SWAP1 POP JUMP JUMPDEST PUSH2 0x3FA DUP2 PUSH2 0x3E0 JUMP JUMPDEST DUP3 MSTORE POP POP JUMP JUMPDEST PUSH0 PUSH1 0x40 DUP3 ADD SWAP1 POP PUSH2 0x413 PUSH0 DUP4 ADD DUP6 PUSH2 0x3F1 JUMP JUMPDEST PUSH2 0x420 PUSH1 0x20 DUP4 ADD DUP5 PUSH2 0x3F1 JUMP JUMPDEST SWAP4 SWAP3 POP POP POP JUMP JUMPDEST PUSH0 DUP1 REVERT JUMPDEST PUSH0 DUP2 SWAP1 POP SWAP2 SWAP1 POP JUMP JUMPDEST PUSH2 0x43D DUP2 PUSH2 0x42B JUMP JUMPDEST DUP2 EQ PUSH2 0x447 JUMPI PUSH0 DUP1 REVERT JUMPDEST POP JUMP JUMPDEST PUSH0 DUP2 MLOAD SWAP1 POP PUSH2 0x458 DUP2 PUSH2 0x434 JUMP JUMPDEST SWAP3 SWAP2 POP POP JUMP JUMPDEST PUSH0 PUSH1 0x20 DUP3 DUP5 SUB SLT ISZERO PUSH2 0x473 JUMPI PUSH2 0x472 PUSH2 0x427 JUMP JUMPDEST JUMPDEST PUSH0 PUSH2 0x480 DUP5 DUP3 DUP6 ADD PUSH2 0x44A JUMP JUMPDEST SWAP2 POP POP SWAP3 SWAP2 POP POP JUMP JUMPDEST PUSH32 0x20596F75206D75736820616C6C6F77207468697320636F6E747261637420746F PUSH0 DUP3 ADD MSTORE PUSH32 0x206174206C65617374206F6E6520746F6B656E00000000000000000000000000 PUSH1 0x20 DUP3 ADD MSTORE POP JUMP JUMPDEST PUSH0 PUSH2 0x4E3 PUSH1 0x33 DUP4 PUSH2 0x368 JUMP JUMPDEST SWAP2 POP PUSH2 0x4EE DUP3 PUSH2 0x489 JUMP JUMPDEST PUSH1 0x40 DUP3 ADD SWAP1 POP SWAP2 SWAP1 POP JUMP JUMPDEST PUSH0 PUSH1 0x20 DUP3 ADD SWAP1 POP DUP2 DUP2 SUB PUSH0 DUP4 ADD MSTORE PUSH2 0x510 DUP2 PUSH2 0x4D7 JUMP JUMPDEST SWAP1 POP SWAP2 SWAP1 POP JUMP JUMPDEST PUSH2 0x520 DUP2 PUSH2 0x42B JUMP JUMPDEST DUP3 MSTORE POP POP JUMP JUMPDEST PUSH0 PUSH1 0x60 DUP3 ADD SWAP1 POP PUSH2 0x539 PUSH0 DUP4 ADD DUP7 PUSH2 0x3F1 JUMP JUMPDEST PUSH2 0x546 PUSH1 0x20 DUP4 ADD DUP6 PUSH2 0x3F1 JUMP JUMPDEST PUSH2 0x553 PUSH1 0x40 DUP4 ADD DUP5 PUSH2 0x517 JUMP JUMPDEST SWAP5 SWAP4 POP POP POP POP JUMP JUMPDEST PUSH0 DUP2 ISZERO ISZERO SWAP1 POP SWAP2 SWAP1 POP JUMP JUMPDEST PUSH2 0x56F DUP2 PUSH2 0x55B JUMP JUMPDEST DUP2 EQ PUSH2 0x579 JUMPI PUSH0 DUP1 REVERT JUMPDEST POP JUMP JUMPDEST PUSH0 DUP2 MLOAD SWAP1 POP PUSH2 0x58A DUP2 PUSH2 0x566 JUMP JUMPDEST SWAP3 SWAP2 POP POP JUMP JUMPDEST PUSH0 PUSH1 0x20 DUP3 DUP5 SUB SLT ISZERO PUSH2 0x5A5 JUMPI PUSH2 0x5A4 PUSH2 0x427 JUMP JUMPDEST JUMPDEST PUSH0 PUSH2 0x5B2 DUP5 DUP3 DUP6 ADD PUSH2 0x57C JUMP JUMPDEST SWAP2 POP POP SWAP3 SWAP2 POP POP JUMP JUMPDEST PUSH32 0x6661696C656420746F2073656E64000000000000000000000000000000000000 PUSH0 DUP3 ADD MSTORE POP JUMP JUMPDEST PUSH0 PUSH2 0x5EF PUSH1 0xE DUP4 PUSH2 0x368 JUMP JUMPDEST SWAP2 POP PUSH2 0x5FA DUP3 PUSH2 0x5BB JUMP JUMPDEST PUSH1 0x20 DUP3 ADD SWAP1 POP SWAP2 SWAP1 POP JUMP JUMPDEST PUSH0 PUSH1 0x20 DUP3 ADD SWAP1 POP DUP2 DUP2 SUB PUSH0 DUP4 ADD MSTORE PUSH2 0x61C DUP2 PUSH2 0x5E3 JUMP JUMPDEST SWAP1 POP SWAP2 SWAP1 POP JUMP INVALID LOG2 PUSH5 0x6970667358 0x22 SLT KECCAK256 SWAP14 0x26 PUSH27 0xCA20E904C32FB1BAC3E23E4B9E68DBD4159F0D363D96C5F5A9AB33 JUMPDEST 0x26 PUSH5 0x736F6C6343 STOP ADDMOD AND STOP CALLER "
				},
				"gasEstimates": {
					"creation": {
						"codeDepositCost": "325000",
						"executionCost": "infinite",
						"totalCost": "infinite"
					},
					"external": {
						"associatedToken()": "infinite",
						"sell()": "infinite"
					}
				},
				"methodIdentifiers": {
					"associatedToken()": "b3fc0d7b",
					"sell()": "45710074"
				}
			},
			"storageLayout": {
				"storage": [
					{
						"astId": 791,
						"contract": "contracts/CAC.sol:CAC",
						"label": "associatedToken",
						"offset": 0,
						"slot": "0",
						"type": "t_contract(IERC20)729"
					},
					{
						"astId": 793,
						"contract": "contracts/CAC.sol:CAC",
						"label": "price",
						"offset": 0,
						"slot": "1",
						"type": "t_uint256"
					},
					{
						"astId": 795,
						"contract": "contracts/CAC.sol:CAC",
						"label": "owner",
						"offset": 0,
						"slot": "2",
						"type": "t_address"
					}
				],
				"types": {
					"t_address": {
						"encoding": "inplace",
						"label": "address",
						"numberOfBytes": "20"
					},
					"t_contract(IERC20)729": {
						"encoding": "inplace",
						"label": "contract IERC20",
						"numberOfBytes": "20"
					},
					"t_uint256": {
						"encoding": "inplace",
						"label": "uint256",
						"numberOfBytes": "32"
					}
				}
			},
			"userdoc": {
				"kind": "user",
				"methods": {},
				"version": 1
			}
		}
	}
}